:100000003AC0000048C0000046C0000044C00000E4
:1000100042C0000040C000003EC000003CC00000E4
:100020003AC0000038C0000036C0000034C00000F4
:1000300032C0000030C000002EC000002CC0000004
:100040002AC0000028C0000026C0000024C0000014
:1000500022C0000020C000001EC000001CC0000024
:100060001AC0000018C00000506F776572207570CC
:100070000A00460A000011241FBECFEFD4E0DEBF05
:10008000CDBF11E0A0E0B1E001C01D92A030B107EA
:10009000E1F7FDD001C0F4C0F894A7C19091C00071
:1000A00095FFFCCF8093C6008091C00085FFFCCFF8
:1000B000089583E38093C40088E18093C10008958C
:1000C000AAE0B0E0E5E6F0E01AC17C014B018A014C
:1000D000AA24A394B12CAC0EBD1EB9C0853209F080
:1000E000A9C064018FEFC81AD80AF6012491203301
:1000F00049F46401F2E0CF0ED11CF601249130E303
:10010000732E02C090E2792E822F8153893048F4F9
:1001100080ED682E620EFFEFCF1ADF0AF601249100
:1001200001C0612C243611F0283761F54801F2E056
:100130008F0E911CF801808191811982243619F467
:100140004AE050E002C040E150E0B5010BD161103F
:1001500002C0850111C0F50101900020E9F7319737
:10016000EA19FB096E1A6620A1F3872DF70109959C
:100170006A94F9CFF7010995F80181918F018111F6
:10018000F9CF4FC02C3649F54801F4E08F0E911C91
:10019000F80180819181A281B38119824AE050E007
:1001A000B501E0D0611002C0850111C0F5010190D8
:1001B0000020E9F73197EA19FB096E1A6620A1F3CE
:1001C000872DF70109956A94F9CFF7010995F80190
:1001D00081918F018111F9CF24C0233781F4480127
:1001E000F2E08F0E911CF8010081118102C0F7012D
:1001F0000995F80181918F018111F9CF12C0203743
:1002000091F44801F2E08F0E911CF80100811181F8
:1002100004C0F70109950F5F1F4FF8018491811108
:10022000F8CF840110C085E2F701099585E2F70156
:10023000099509C08A3021F48DE0F70109958AE01B
:10024000F701099564014601FFEF8F1A9F0AF40137
:100250008491811143CF2A96EEE06DC0A2E0B0E018
:10026000E3E3F1E058C0FE01379661917191FA83A2
:10027000E983AF018EE490E023DF2296E2E067C0DD
:100280001895882311F05C9808955C9A089528E2E7
:1002900088E190E00FB6F894A895809360000FBEB7
:1002A00020936000549A81E0ECDF03DF88E690E061
:1002B0009F938F93D3DF219A81E08093800089E020
:1002C000809381000F900F9010E0C2E7D0E0DF93A1
:1002D000CF93C4DF812F81701F5FD3DF9FEF21EEAB
:1002E00084E0915020408040E1F700C00000A895D4
:1002F0000F900F90ECCF2F923F924F925F926F92A0
:100300007F928F929F92AF92BF92CF92DF92EF92A5
:10031000FF920F931F93CF93DF93CDB7DEB7CA1B26
:10032000DB0B0FB6F894DEBF0FBECDBF09942A8851
:10033000398848885F846E847D848C849B84AA84F9
:10034000B984C884DF80EE80FD800C811B81AA8186
:10035000B981CE0FD11D0FB6F894DEBF0FBECDBF51
:10036000ED010895FB019F01E8944230BCF0453255
:10037000ACF44A3029F497FB1EF4909581959F4F79
:10038000642F77271ED0805D8A330CF0895D8193BE
:10039000CB010097A9F716F45DE251931082C901D1
:1003A00000C0DC01FC01672F71917723E1F73297E0
:1003B00004C07C916D9370836291AE17BF07C8F340
:1003C0000895AA1BBB1B51E107C0AA1FBB1FA6179C
:1003D000B70710F0A61BB70B881F991F5A95A9F7EE
:0E03E00080959095BC01CD010895F894FFCF53
:00000001FF
